{
	"contracts/FundMe.sol": {
		"FundMe": {
			"abi": [
				{
					"inputs": [],
					"name": "Fund",
					"outputs": [],
					"stateMutability": "payable",
					"type": "function"
				},
				{
					"inputs": [
						{
							"internalType": "address",
							"name": "funder",
							"type": "address"
						}
					],
					"name": "addresSTOAmountFunding",
					"outputs": [
						{
							"internalType": "uint256",
							"name": "amountFunded",
							"type": "uint256"
						}
					],
					"stateMutability": "view",
					"type": "function"
				},
				{
					"inputs": [
						{
							"internalType": "uint256",
							"name": "",
							"type": "uint256"
						}
					],
					"name": "funders",
					"outputs": [
						{
							"internalType": "address",
							"name": "",
							"type": "address"
						}
					],
					"stateMutability": "view",
					"type": "function"
				},
				{
					"inputs": [],
					"name": "getVersion",
					"outputs": [
						{
							"internalType": "uint256",
							"name": "",
							"type": "uint256"
						}
					],
					"stateMutability": "view",
					"type": "function"
				},
				{
					"inputs": [],
					"name": "minimumUsd",
					"outputs": [
						{
							"internalType": "uint256",
							"name": "",
							"type": "uint256"
						}
					],
					"stateMutability": "view",
					"type": "function"
				},
				{
					"inputs": [],
					"name": "withdraw",
					"outputs": [],
					"stateMutability": "nonpayable",
					"type": "function"
				}
			],
			"devdoc": {
				"kind": "dev",
				"methods": {},
				"version": 1
			},
			"evm": {
				"assembly": "    /* \"contracts/FundMe.sol\":332:1450  contract FundMe {... */\n  mstore(0x40, 0x80)\n    /* \"contracts/FundMe.sol\":461:465  5e18 */\n  0x4563918244f40000\n    /* \"contracts/FundMe.sol\":433:465  uint256 public minimumUsd = 5e18 */\n  0x00\n  sstore\n    /* \"contracts/FundMe.sol\":332:1450  contract FundMe {... */\n  callvalue\n  dup1\n  iszero\n  tag_1\n  jumpi\n  0x00\n  dup1\n  revert\ntag_1:\n  pop\n  dataSize(sub_0)\n  dup1\n  dataOffset(sub_0)\n  0x00\n  codecopy\n  0x00\n  return\nstop\n\nsub_0: assembly {\n        /* \"contracts/FundMe.sol\":332:1450  contract FundMe {... */\n      mstore(0x40, 0x80)\n      jumpi(tag_1, lt(calldatasize, 0x04))\n      shr(0xe0, calldataload(0x00))\n      dup1\n      0x098de820\n      eq\n      tag_2\n      jumpi\n      dup1\n      0x0d8e6e2c\n      eq\n      tag_3\n      jumpi\n      dup1\n      0x3ccfd60b\n      eq\n      tag_4\n      jumpi\n      dup1\n      0x4d45893e\n      eq\n      tag_5\n      jumpi\n      dup1\n      0x6ce1417e\n      eq\n      tag_6\n      jumpi\n      dup1\n      0xdc0d3dff\n      eq\n      tag_7\n      jumpi\n    tag_1:\n      0x00\n      dup1\n      revert\n        /* \"contracts/FundMe.sol\":433:465  uint256 public minimumUsd = 5e18 */\n    tag_2:\n      callvalue\n      dup1\n      iszero\n      tag_8\n      jumpi\n      0x00\n      dup1\n      revert\n    tag_8:\n      pop\n      tag_9\n      tag_10\n      jump\t// in\n    tag_9:\n      mload(0x40)\n      tag_11\n      swap2\n      swap1\n      tag_12\n      jump\t// in\n    tag_11:\n      mload(0x40)\n      dup1\n      swap2\n      sub\n      swap1\n      return\n        /* \"contracts/FundMe.sol\":1240:1447  function getVersion() public view returns (uint256) {... */\n    tag_3:\n      callvalue\n      dup1\n      iszero\n      tag_13\n      jumpi\n      0x00\n      dup1\n      revert\n    tag_13:\n      pop\n      tag_14\n      tag_15\n      jump\t// in\n    tag_14:\n      mload(0x40)\n      tag_16\n      swap2\n      swap1\n      tag_12\n      jump\t// in\n    tag_16:\n      mload(0x40)\n      dup1\n      swap2\n      sub\n      swap1\n      return\n        /* \"contracts/FundMe.sol\":811:1230  function withdraw() public{... */\n    tag_4:\n      callvalue\n      dup1\n      iszero\n      tag_17\n      jumpi\n      0x00\n      dup1\n      revert\n    tag_17:\n      pop\n      tag_18\n      tag_19\n      jump\t// in\n    tag_18:\n      stop\n        /* \"contracts/FundMe.sol\":503:580  mapping(address funder => uint256 amountFunded) public addresSTOAmountFunding */\n    tag_5:\n      callvalue\n      dup1\n      iszero\n      tag_20\n      jumpi\n      0x00\n      dup1\n      revert\n    tag_20:\n      pop\n      tag_21\n      0x04\n      dup1\n      calldatasize\n      sub\n      dup2\n      add\n      swap1\n      tag_22\n      swap2\n      swap1\n      tag_23\n      jump\t// in\n    tag_22:\n      tag_24\n      jump\t// in\n    tag_21:\n      mload(0x40)\n      tag_25\n      swap2\n      swap1\n      tag_12\n      jump\t// in\n    tag_25:\n      mload(0x40)\n      dup1\n      swap2\n      sub\n      swap1\n      return\n        /* \"contracts/FundMe.sol\":590:803  function Fund() public payable {... */\n    tag_6:\n      tag_26\n      tag_27\n      jump\t// in\n    tag_26:\n      stop\n        /* \"contracts/FundMe.sol\":472:496  address[] public funders */\n    tag_7:\n      callvalue\n      dup1\n      iszero\n      tag_28\n      jumpi\n      0x00\n      dup1\n      revert\n    tag_28:\n      pop\n      tag_29\n      0x04\n      dup1\n      calldatasize\n      sub\n      dup2\n      add\n      swap1\n      tag_30\n      swap2\n      swap1\n      tag_31\n      jump\t// in\n    tag_30:\n      tag_32\n      jump\t// in\n    tag_29:\n      mload(0x40)\n      tag_33\n      swap2\n      swap1\n      tag_34\n      jump\t// in\n    tag_33:\n      mload(0x40)\n      dup1\n      swap2\n      sub\n      swap1\n      return\n        /* \"contracts/FundMe.sol\":433:465  uint256 public minimumUsd = 5e18 */\n    tag_10:\n      sload(0x00)\n      dup2\n      jump\t// out\n        /* \"contracts/FundMe.sol\":1240:1447  function getVersion() public view returns (uint256) {... */\n    tag_15:\n        /* \"contracts/FundMe.sol\":1283:1290  uint256 */\n      0x00\n        /* \"contracts/FundMe.sol\":1303:1334  AggregatorV3Interface priceFeed */\n      dup1\n        /* \"contracts/FundMe.sol\":1359:1401  0x694AA1769357215DE4FAC081bf1f309aDC325306 */\n      0x694aa1769357215de4fac081bf1f309adc325306\n        /* \"contracts/FundMe.sol\":1303:1402  AggregatorV3Interface priceFeed = AggregatorV3Interface(0x694AA1769357215DE4FAC081bf1f309aDC325306) */\n      swap1\n      pop\n        /* \"contracts/FundMe.sol\":1420:1429  priceFeed */\n      dup1\n        /* \"contracts/FundMe.sol\":1420:1437  priceFeed.version */\n      0xffffffffffffffffffffffffffffffffffffffff\n      and\n      0x54fd4d50\n        /* \"contracts/FundMe.sol\":1420:1439  priceFeed.version() */\n      mload(0x40)\n      dup2\n      0xffffffff\n      and\n      0xe0\n      shl\n      dup2\n      mstore\n      0x04\n      add\n      0x20\n      mload(0x40)\n      dup1\n      dup4\n      sub\n      dup2\n      dup7\n      gas\n      staticcall\n      iszero\n      dup1\n      iszero\n      tag_37\n      jumpi\n      returndatasize\n      0x00\n      dup1\n      returndatacopy\n      revert(0x00, returndatasize)\n    tag_37:\n      pop\n      pop\n      pop\n      pop\n      mload(0x40)\n      returndatasize\n      not(0x1f)\n      0x1f\n      dup3\n      add\n      and\n      dup3\n      add\n      dup1\n      0x40\n      mstore\n      pop\n      dup2\n      add\n      swap1\n      tag_38\n      swap2\n      swap1\n      tag_39\n      jump\t// in\n    tag_38:\n        /* \"contracts/FundMe.sol\":1413:1439  return priceFeed.version() */\n      swap2\n      pop\n      pop\n        /* \"contracts/FundMe.sol\":1240:1447  function getVersion() public view returns (uint256) {... */\n      swap1\n      jump\t// out\n        /* \"contracts/FundMe.sol\":811:1230  function withdraw() public{... */\n    tag_19:\n        /* \"contracts/FundMe.sol\":852:861  uint256 i */\n      0x00\n        /* \"contracts/FundMe.sol\":848:991  for(uint256 i=0; i<funders.length; i++) {... */\n    tag_41:\n        /* \"contracts/FundMe.sol\":867:874  funders */\n      0x01\n        /* \"contracts/FundMe.sol\":867:881  funders.length */\n      dup1\n      sload\n      swap1\n      pop\n        /* \"contracts/FundMe.sol\":865:866  i */\n      dup2\n        /* \"contracts/FundMe.sol\":865:881  i<funders.length */\n      lt\n        /* \"contracts/FundMe.sol\":848:991  for(uint256 i=0; i<funders.length; i++) {... */\n      iszero\n      tag_42\n      jumpi\n        /* \"contracts/FundMe.sol\":903:917  address funder */\n      0x00\n        /* \"contracts/FundMe.sol\":920:927  funders */\n      0x01\n        /* \"contracts/FundMe.sol\":928:929  i */\n      dup3\n        /* \"contracts/FundMe.sol\":920:930  funders[i] */\n      dup2\n      sload\n      dup2\n      lt\n      tag_44\n      jumpi\n      tag_45\n      tag_46\n      jump\t// in\n    tag_45:\n    tag_44:\n      swap1\n      0x00\n      mstore\n      keccak256(0x00, 0x20)\n      add\n      0x00\n      swap1\n      sload\n      swap1\n      0x0100\n      exp\n      swap1\n      div\n      0xffffffffffffffffffffffffffffffffffffffff\n      and\n        /* \"contracts/FundMe.sol\":903:930  address funder = funders[i] */\n      swap1\n      pop\n        /* \"contracts/FundMe.sol\":978:979  0 */\n      0x00\n        /* \"contracts/FundMe.sol\":945:967  addresSTOAmountFunding */\n      0x02\n        /* \"contracts/FundMe.sol\":945:975  addresSTOAmountFunding[funder] */\n      0x00\n        /* \"contracts/FundMe.sol\":968:974  funder */\n      dup4\n        /* \"contracts/FundMe.sol\":945:975  addresSTOAmountFunding[funder] */\n      0xffffffffffffffffffffffffffffffffffffffff\n      and\n      0xffffffffffffffffffffffffffffffffffffffff\n      and\n      dup2\n      mstore\n      0x20\n      add\n      swap1\n      dup2\n      mstore\n      0x20\n      add\n      0x00\n      keccak256\n        /* \"contracts/FundMe.sol\":945:979  addresSTOAmountFunding[funder] = 0 */\n      dup2\n      swap1\n      sstore\n      pop\n        /* \"contracts/FundMe.sol\":888:991  {... */\n      pop\n        /* \"contracts/FundMe.sol\":883:886  i++ */\n      dup1\n      dup1\n      0x01\n      add\n      swap2\n      pop\n      pop\n        /* \"contracts/FundMe.sol\":848:991  for(uint256 i=0; i<funders.length; i++) {... */\n      jump(tag_41)\n    tag_42:\n      pop\n        /* \"contracts/FundMe.sol\":1027:1028  0 */\n      0x00\n        /* \"contracts/FundMe.sol\":1013:1029  new address[](0) */\n      0xffffffffffffffff\n      dup2\n      gt\n      iszero\n      tag_48\n      jumpi\n      tag_49\n      tag_50\n      jump\t// in\n    tag_49:\n    tag_48:\n      mload(0x40)\n      swap1\n      dup1\n      dup3\n      mstore\n      dup1\n      0x20\n      mul\n      0x20\n      add\n      dup3\n      add\n      0x40\n      mstore\n      dup1\n      iszero\n      tag_51\n      jumpi\n      dup2\n      0x20\n      add\n      0x20\n      dup3\n      mul\n      dup1\n      calldatasize\n      dup4\n      calldatacopy\n      dup1\n      dup3\n      add\n      swap2\n      pop\n      pop\n      swap1\n      pop\n    tag_51:\n      pop\n        /* \"contracts/FundMe.sol\":1003:1010  funders */\n      0x01\n        /* \"contracts/FundMe.sol\":1003:1029  funders = new address[](0) */\n      swap1\n      dup1\n      mload\n      swap1\n      0x20\n      add\n      swap1\n      tag_52\n      swap3\n      swap2\n      swap1\n      tag_53\n      jump\t// in\n    tag_52:\n      pop\n        /* \"contracts/FundMe.sol\":1177:1187  msg.sender */\n      caller\n        /* \"contracts/FundMe.sol\":1169:1197  payable(msg.sender).transfer */\n      0xffffffffffffffffffffffffffffffffffffffff\n      and\n        /* \"contracts/FundMe.sol\":1169:1220  payable(msg.sender).transfer(address(this).balance) */\n      0x08fc\n        /* \"contracts/FundMe.sol\":1198:1219  address(this).balance */\n      selfbalance\n        /* \"contracts/FundMe.sol\":1169:1220  payable(msg.sender).transfer(address(this).balance) */\n      swap1\n      dup2\n      iszero\n      mul\n      swap1\n      mload(0x40)\n      0x00\n      mload(0x40)\n      dup1\n      dup4\n      sub\n      dup2\n      dup6\n      dup9\n      dup9\n      call\n      swap4\n      pop\n      pop\n      pop\n      pop\n      iszero\n      dup1\n      iszero\n      tag_55\n      jumpi\n      returndatasize\n      0x00\n      dup1\n      returndatacopy\n      revert(0x00, returndatasize)\n    tag_55:\n      pop\n        /* \"contracts/FundMe.sol\":811:1230  function withdraw() public{... */\n      jump\t// out\n        /* \"contracts/FundMe.sol\":503:580  mapping(address funder => uint256 amountFunded) public addresSTOAmountFunding */\n    tag_24:\n      mstore(0x20, 0x02)\n      dup1\n      0x00\n      mstore\n      keccak256(0x00, 0x40)\n      0x00\n      swap2\n      pop\n      swap1\n      pop\n      sload\n      dup2\n      jump\t// out\n        /* \"contracts/FundMe.sol\":590:803  function Fund() public payable {... */\n    tag_27:\n        /* \"contracts/FundMe.sol\":673:683  minimumUsd */\n      sload(0x00)\n        /* \"contracts/FundMe.sol\":640:669  msg.value.getConversionRate() */\n      tag_57\n        /* \"contracts/FundMe.sol\":640:649  msg.value */\n      callvalue\n        /* \"contracts/FundMe.sol\":640:667  msg.value.getConversionRate */\n      tag_58\n        /* \"contracts/FundMe.sol\":640:669  msg.value.getConversionRate() */\n      jump\t// in\n    tag_57:\n        /* \"contracts/FundMe.sol\":640:683  msg.value.getConversionRate() >= minimumUsd */\n      lt\n      iszero\n        /* \"contracts/FundMe.sol\":632:702  require(msg.value.getConversionRate() >= minimumUsd, \"not enough eth\") */\n      tag_59\n      jumpi\n      mload(0x40)\n      0x08c379a000000000000000000000000000000000000000000000000000000000\n      dup2\n      mstore\n      0x04\n      add\n      tag_60\n      swap1\n      tag_61\n      jump\t// in\n    tag_60:\n      mload(0x40)\n      dup1\n      swap2\n      sub\n      swap1\n      revert\n    tag_59:\n        /* \"contracts/FundMe.sol\":713:720  funders */\n      0x01\n        /* \"contracts/FundMe.sol\":726:736  msg.sender */\n      caller\n        /* \"contracts/FundMe.sol\":713:737  funders.push(msg.sender) */\n      swap1\n      dup1\n      0x01\n      dup2\n      sload\n      add\n      dup1\n      dup3\n      sstore\n      dup1\n      swap2\n      pop\n      pop\n      0x01\n      swap1\n      sub\n      swap1\n      0x00\n      mstore\n      keccak256(0x00, 0x20)\n      add\n      0x00\n      swap1\n      swap2\n      swap1\n      swap2\n      swap1\n      swap2\n      0x0100\n      exp\n      dup2\n      sload\n      dup2\n      0xffffffffffffffffffffffffffffffffffffffff\n      mul\n      not\n      and\n      swap1\n      dup4\n      0xffffffffffffffffffffffffffffffffffffffff\n      and\n      mul\n      or\n      swap1\n      sstore\n      pop\n        /* \"contracts/FundMe.sol\":786:795  msg.value */\n      callvalue\n        /* \"contracts/FundMe.sol\":748:770  addresSTOAmountFunding */\n      0x02\n        /* \"contracts/FundMe.sol\":748:782  addresSTOAmountFunding[msg.sender] */\n      0x00\n        /* \"contracts/FundMe.sol\":771:781  msg.sender */\n      caller\n        /* \"contracts/FundMe.sol\":748:782  addresSTOAmountFunding[msg.sender] */\n      0xffffffffffffffffffffffffffffffffffffffff\n      and\n      0xffffffffffffffffffffffffffffffffffffffff\n      and\n      dup2\n      mstore\n      0x20\n      add\n      swap1\n      dup2\n      mstore\n      0x20\n      add\n      0x00\n      keccak256\n      0x00\n        /* \"contracts/FundMe.sol\":748:795  addresSTOAmountFunding[msg.sender] += msg.value */\n      dup3\n      dup3\n      sload\n      tag_63\n      swap2\n      swap1\n      tag_64\n      jump\t// in\n    tag_63:\n      swap3\n      pop\n      pop\n      dup2\n      swap1\n      sstore\n      pop\n        /* \"contracts/FundMe.sol\":590:803  function Fund() public payable {... */\n      jump\t// out\n        /* \"contracts/FundMe.sol\":472:496  address[] public funders */\n    tag_32:\n      0x01\n      dup2\n      dup2\n      sload\n      dup2\n      lt\n      tag_65\n      jumpi\n      0x00\n      dup1\n      revert\n    tag_65:\n      swap1\n      0x00\n      mstore\n      keccak256(0x00, 0x20)\n      add\n      0x00\n      swap2\n      pop\n      sload\n      swap1\n      0x0100\n      exp\n      swap1\n      div\n      0xffffffffffffffffffffffffffffffffffffffff\n      and\n      dup2\n      jump\t// out\n        /* \"contracts/priceConverter.sol\":486:709  function getConversionRate(uint256 ethamount) internal view returns(uint256){... */\n    tag_58:\n        /* \"contracts/priceConverter.sol\":554:561  uint256 */\n      0x00\n        /* \"contracts/priceConverter.sol\":573:589  uint256 ethPrice */\n      dup1\n        /* \"contracts/priceConverter.sol\":592:602  getPrice() */\n      tag_68\n        /* \"contracts/priceConverter.sol\":592:600  getPrice */\n      tag_69\n        /* \"contracts/priceConverter.sol\":592:602  getPrice() */\n      jump\t// in\n    tag_68:\n        /* \"contracts/priceConverter.sol\":573:602  uint256 ethPrice = getPrice() */\n      swap1\n      pop\n        /* \"contracts/priceConverter.sol\":613:635  uint256 ethamountInUsd */\n      0x00\n        /* \"contracts/priceConverter.sol\":663:667  1e10 */\n      0x02540be400\n        /* \"contracts/priceConverter.sol\":651:659  ethPrice */\n      dup3\n        /* \"contracts/priceConverter.sol\":639:648  ethamount */\n      dup6\n        /* \"contracts/priceConverter.sol\":639:659  ethamount * ethPrice */\n      tag_70\n      swap2\n      swap1\n      tag_71\n      jump\t// in\n    tag_70:\n        /* \"contracts/priceConverter.sol\":638:667  (ethamount * ethPrice) / 1e10 */\n      tag_72\n      swap2\n      swap1\n      tag_73\n      jump\t// in\n    tag_72:\n        /* \"contracts/priceConverter.sol\":613:667  uint256 ethamountInUsd = (ethamount * ethPrice) / 1e10 */\n      swap1\n      pop\n        /* \"contracts/priceConverter.sol\":685:699  ethamountInUsd */\n      dup1\n        /* \"contracts/priceConverter.sol\":678:699  return ethamountInUsd */\n      swap3\n      pop\n      pop\n      pop\n        /* \"contracts/priceConverter.sol\":486:709  function getConversionRate(uint256 ethamount) internal view returns(uint256){... */\n      swap2\n      swap1\n      pop\n      jump\t// out\n        /* \"contracts/priceConverter.sol\":208:478  function getPrice() internal view returns (uint256) {... */\n    tag_69:\n        /* \"contracts/priceConverter.sol\":251:258  uint256 */\n      0x00\n        /* \"contracts/priceConverter.sol\":271:302  AggregatorV3Interface PriceFeed */\n      dup1\n        /* \"contracts/priceConverter.sol\":327:369  0x694AA1769357215DE4FAC081bf1f309aDC325306 */\n      0x694aa1769357215de4fac081bf1f309adc325306\n        /* \"contracts/priceConverter.sol\":271:370  AggregatorV3Interface PriceFeed = AggregatorV3Interface(0x694AA1769357215DE4FAC081bf1f309aDC325306) */\n      swap1\n      pop\n        /* \"contracts/priceConverter.sol\":383:395  int256 price */\n      0x00\n        /* \"contracts/priceConverter.sol\":402:411  PriceFeed */\n      dup2\n        /* \"contracts/priceConverter.sol\":402:427  PriceFeed.latestRoundData */\n      0xffffffffffffffffffffffffffffffffffffffff\n      and\n      0xfeaf968c\n        /* \"contracts/priceConverter.sol\":402:429  PriceFeed.latestRoundData() */\n      mload(0x40)\n      dup2\n      0xffffffff\n      and\n      0xe0\n      shl\n      dup2\n      mstore\n      0x04\n      add\n      0xa0\n      mload(0x40)\n      dup1\n      dup4\n      sub\n      dup2\n      dup7\n      gas\n      staticcall\n      iszero\n      dup1\n      iszero\n      tag_76\n      jumpi\n      returndatasize\n      0x00\n      dup1\n      returndatacopy\n      revert(0x00, returndatasize)\n    tag_76:\n      pop\n      pop\n      pop\n      pop\n      mload(0x40)\n      returndatasize\n      not(0x1f)\n      0x1f\n      dup3\n      add\n      and\n      dup3\n      add\n      dup1\n      0x40\n      mstore\n      pop\n      dup2\n      add\n      swap1\n      tag_77\n      swap2\n      swap1\n      tag_78\n      jump\t// in\n    tag_77:\n        /* \"contracts/priceConverter.sol\":381:429  (,int256 price,,,) = PriceFeed.latestRoundData() */\n      pop\n      pop\n      pop\n      swap2\n      pop\n      pop\n        /* \"contracts/priceConverter.sol\":465:469  1e10 */\n      0x02540be400\n        /* \"contracts/priceConverter.sol\":457:462  price */\n      dup2\n        /* \"contracts/priceConverter.sol\":457:469  price * 1e10 */\n      tag_79\n      swap2\n      swap1\n      tag_80\n      jump\t// in\n    tag_79:\n        /* \"contracts/priceConverter.sol\":442:470  return uint256(price * 1e10) */\n      swap3\n      pop\n      pop\n      pop\n        /* \"contracts/priceConverter.sol\":208:478  function getPrice() internal view returns (uint256) {... */\n      swap1\n      jump\t// out\n    tag_53:\n      dup3\n      dup1\n      sload\n      dup3\n      dup3\n      sstore\n      swap1\n      0x00\n      mstore\n      keccak256(0x00, 0x20)\n      swap1\n      dup2\n      add\n      swap3\n      dup3\n      iszero\n      tag_81\n      jumpi\n      swap2\n      0x20\n      mul\n      dup3\n      add\n    tag_82:\n      dup3\n      dup2\n      gt\n      iszero\n      tag_83\n      jumpi\n      dup3\n      mload\n      dup3\n      exp(0x0100, 0x00)\n      dup2\n      sload\n      dup2\n      0xffffffffffffffffffffffffffffffffffffffff\n      mul\n      not\n      and\n      swap1\n      dup4\n      0xffffffffffffffffffffffffffffffffffffffff\n      and\n      mul\n      or\n      swap1\n      sstore\n      pop\n      swap2\n      0x20\n      add\n      swap2\n      swap1\n      0x01\n      add\n      swap1\n      jump(tag_82)\n    tag_83:\n    tag_81:\n      pop\n      swap1\n      pop\n      tag_84\n      swap2\n      swap1\n      tag_85\n      jump\t// in\n    tag_84:\n      pop\n      swap1\n      jump\t// out\n    tag_85:\n    tag_86:\n      dup1\n      dup3\n      gt\n      iszero\n      tag_87\n      jumpi\n      0x00\n      dup2\n      0x00\n      swap1\n      sstore\n      pop\n      0x01\n      add\n      jump(tag_86)\n    tag_87:\n      pop\n      swap1\n      jump\t// out\n        /* \"#utility.yul\":7:84   */\n    tag_88:\n        /* \"#utility.yul\":44:51   */\n      0x00\n        /* \"#utility.yul\":73:78   */\n      dup2\n        /* \"#utility.yul\":62:78   */\n      swap1\n      pop\n        /* \"#utility.yul\":7:84   */\n      swap2\n      swap1\n      pop\n      jump\t// out\n        /* \"#utility.yul\":90:208   */\n    tag_89:\n        /* \"#utility.yul\":177:201   */\n      tag_115\n        /* \"#utility.yul\":195:200   */\n      dup2\n        /* \"#utility.yul\":177:201   */\n      tag_88\n      jump\t// in\n    tag_115:\n        /* \"#utility.yul\":172:175   */\n      dup3\n        /* \"#utility.yul\":165:202   */\n      mstore\n        /* \"#utility.yul\":90:208   */\n      pop\n      pop\n      jump\t// out\n        /* \"#utility.yul\":214:436   */\n    tag_12:\n        /* \"#utility.yul\":307:311   */\n      0x00\n        /* \"#utility.yul\":345:347   */\n      0x20\n        /* \"#utility.yul\":334:343   */\n      dup3\n        /* \"#utility.yul\":330:348   */\n      add\n        /* \"#utility.yul\":322:348   */\n      swap1\n      pop\n        /* \"#utility.yul\":358:429   */\n      tag_117\n        /* \"#utility.yul\":426:427   */\n      0x00\n        /* \"#utility.yul\":415:424   */\n      dup4\n        /* \"#utility.yul\":411:428   */\n      add\n        /* \"#utility.yul\":402:408   */\n      dup5\n        /* \"#utility.yul\":358:429   */\n      tag_89\n      jump\t// in\n    tag_117:\n        /* \"#utility.yul\":214:436   */\n      swap3\n      swap2\n      pop\n      pop\n      jump\t// out\n        /* \"#utility.yul\":523:640   */\n    tag_91:\n        /* \"#utility.yul\":632:633   */\n      0x00\n        /* \"#utility.yul\":629:630   */\n      dup1\n        /* \"#utility.yul\":622:634   */\n      revert\n        /* \"#utility.yul\":769:895   */\n    tag_93:\n        /* \"#utility.yul\":806:813   */\n      0x00\n        /* \"#utility.yul\":846:888   */\n      0xffffffffffffffffffffffffffffffffffffffff\n        /* \"#utility.yul\":839:844   */\n      dup3\n        /* \"#utility.yul\":835:889   */\n      and\n        /* \"#utility.yul\":824:889   */\n      swap1\n      pop\n        /* \"#utility.yul\":769:895   */\n      swap2\n      swap1\n      pop\n      jump\t// out\n        /* \"#utility.yul\":901:997   */\n    tag_94:\n        /* \"#utility.yul\":938:945   */\n      0x00\n        /* \"#utility.yul\":967:991   */\n      tag_123\n        /* \"#utility.yul\":985:990   */\n      dup3\n        /* \"#utility.yul\":967:991   */\n      tag_93\n      jump\t// in\n    tag_123:\n        /* \"#utility.yul\":956:991   */\n      swap1\n      pop\n        /* \"#utility.yul\":901:997   */\n      swap2\n      swap1\n      pop\n      jump\t// out\n        /* \"#utility.yul\":1003:1125   */\n    tag_95:\n        /* \"#utility.yul\":1076:1100   */\n      tag_125\n        /* \"#utility.yul\":1094:1099   */\n      dup2\n        /* \"#utility.yul\":1076:1100   */\n      tag_94\n      jump\t// in\n    tag_125:\n        /* \"#utility.yul\":1069:1074   */\n      dup2\n        /* \"#utility.yul\":1066:1101   */\n      eq\n        /* \"#utility.yul\":1056:1119   */\n      tag_126\n      jumpi\n        /* \"#utility.yul\":1115:1116   */\n      0x00\n        /* \"#utility.yul\":1112:1113   */\n      dup1\n        /* \"#utility.yul\":1105:1117   */\n      revert\n        /* \"#utility.yul\":1056:1119   */\n    tag_126:\n        /* \"#utility.yul\":1003:1125   */\n      pop\n      jump\t// out\n        /* \"#utility.yul\":1131:1270   */\n    tag_96:\n        /* \"#utility.yul\":1177:1182   */\n      0x00\n        /* \"#utility.yul\":1215:1221   */\n      dup2\n        /* \"#utility.yul\":1202:1222   */\n      calldataload\n        /* \"#utility.yul\":1193:1222   */\n      swap1\n      pop\n        /* \"#utility.yul\":1231:1264   */\n      tag_128\n        /* \"#utility.yul\":1258:1263   */\n      dup2\n        /* \"#utility.yul\":1231:1264   */\n      tag_95\n      jump\t// in\n    tag_128:\n        /* \"#utility.yul\":1131:1270   */\n      swap3\n      swap2\n      pop\n      pop\n      jump\t// out\n        /* \"#utility.yul\":1276:1605   */\n    tag_23:\n        /* \"#utility.yul\":1335:1341   */\n      0x00\n        /* \"#utility.yul\":1384:1386   */\n      0x20\n        /* \"#utility.yul\":1372:1381   */\n      dup3\n        /* \"#utility.yul\":1363:1370   */\n      dup5\n        /* \"#utility.yul\":1359:1382   */\n      sub\n        /* \"#utility.yul\":1355:1387   */\n      slt\n        /* \"#utility.yul\":1352:1471   */\n      iszero\n      tag_130\n      jumpi\n        /* \"#utility.yul\":1390:1469   */\n      tag_131\n      tag_91\n      jump\t// in\n    tag_131:\n        /* \"#utility.yul\":1352:1471   */\n    tag_130:\n        /* \"#utility.yul\":1510:1511   */\n      0x00\n        /* \"#utility.yul\":1535:1588   */\n      tag_132\n        /* \"#utility.yul\":1580:1587   */\n      dup5\n        /* \"#utility.yul\":1571:1577   */\n      dup3\n        /* \"#utility.yul\":1560:1569   */\n      dup6\n        /* \"#utility.yul\":1556:1578   */\n      add\n        /* \"#utility.yul\":1535:1588   */\n      tag_96\n      jump\t// in\n    tag_132:\n        /* \"#utility.yul\":1525:1588   */\n      swap2\n      pop\n        /* \"#utility.yul\":1481:1598   */\n      pop\n        /* \"#utility.yul\":1276:1605   */\n      swap3\n      swap2\n      pop\n      pop\n      jump\t// out\n        /* \"#utility.yul\":1611:1733   */\n    tag_97:\n        /* \"#utility.yul\":1684:1708   */\n      tag_134\n        /* \"#utility.yul\":1702:1707   */\n      dup2\n        /* \"#utility.yul\":1684:1708   */\n      tag_88\n      jump\t// in\n    tag_134:\n        /* \"#utility.yul\":1677:1682   */\n      dup2\n        /* \"#utility.yul\":1674:1709   */\n      eq\n        /* \"#utility.yul\":1664:1727   */\n      tag_135\n      jumpi\n        /* \"#utility.yul\":1723:1724   */\n      0x00\n        /* \"#utility.yul\":1720:1721   */\n      dup1\n        /* \"#utility.yul\":1713:1725   */\n      revert\n        /* \"#utility.yul\":1664:1727   */\n    tag_135:\n        /* \"#utility.yul\":1611:1733   */\n      pop\n      jump\t// out\n        /* \"#utility.yul\":1739:1878   */\n    tag_98:\n        /* \"#utility.yul\":1785:1790   */\n      0x00\n        /* \"#utility.yul\":1823:1829   */\n      dup2\n        /* \"#utility.yul\":1810:1830   */\n      calldataload\n        /* \"#utility.yul\":1801:1830   */\n      swap1\n      pop\n        /* \"#utility.yul\":1839:1872   */\n      tag_137\n        /* \"#utility.yul\":1866:1871   */\n      dup2\n        /* \"#utility.yul\":1839:1872   */\n      tag_97\n      jump\t// in\n    tag_137:\n        /* \"#utility.yul\":1739:1878   */\n      swap3\n      swap2\n      pop\n      pop\n      jump\t// out\n        /* \"#utility.yul\":1884:2213   */\n    tag_31:\n        /* \"#utility.yul\":1943:1949   */\n      0x00\n        /* \"#utility.yul\":1992:1994   */\n      0x20\n        /* \"#utility.yul\":1980:1989   */\n      dup3\n        /* \"#utility.yul\":1971:1978   */\n      dup5\n        /* \"#utility.yul\":1967:1990   */\n      sub\n        /* \"#utility.yul\":1963:1995   */\n      slt\n        /* \"#utility.yul\":1960:2079   */\n      iszero\n      tag_139\n      jumpi\n        /* \"#utility.yul\":1998:2077   */\n      tag_140\n      tag_91\n      jump\t// in\n    tag_140:\n        /* \"#utility.yul\":1960:2079   */\n    tag_139:\n        /* \"#utility.yul\":2118:2119   */\n      0x00\n        /* \"#utility.yul\":2143:2196   */\n      tag_141\n        /* \"#utility.yul\":2188:2195   */\n      dup5\n        /* \"#utility.yul\":2179:2185   */\n      dup3\n        /* \"#utility.yul\":2168:2177   */\n      dup6\n        /* \"#utility.yul\":2164:2186   */\n      add\n        /* \"#utility.yul\":2143:2196   */\n      tag_98\n      jump\t// in\n    tag_141:\n        /* \"#utility.yul\":2133:2196   */\n      swap2\n      pop\n        /* \"#utility.yul\":2089:2206   */\n      pop\n        /* \"#utility.yul\":1884:2213   */\n      swap3\n      swap2\n      pop\n      pop\n      jump\t// out\n        /* \"#utility.yul\":2219:2337   */\n    tag_99:\n        /* \"#utility.yul\":2306:2330   */\n      tag_143\n        /* \"#utility.yul\":2324:2329   */\n      dup2\n        /* \"#utility.yul\":2306:2330   */\n      tag_94\n      jump\t// in\n    tag_143:\n        /* \"#utility.yul\":2301:2304   */\n      dup3\n        /* \"#utility.yul\":2294:2331   */\n      mstore\n        /* \"#utility.yul\":2219:2337   */\n      pop\n      pop\n      jump\t// out\n        /* \"#utility.yul\":2343:2565   */\n    tag_34:\n        /* \"#utility.yul\":2436:2440   */\n      0x00\n        /* \"#utility.yul\":2474:2476   */\n      0x20\n        /* \"#utility.yul\":2463:2472   */\n      dup3\n        /* \"#utility.yul\":2459:2477   */\n      add\n        /* \"#utility.yul\":2451:2477   */\n      swap1\n      pop\n        /* \"#utility.yul\":2487:2558   */\n      tag_145\n        /* \"#utility.yul\":2555:2556   */\n      0x00\n        /* \"#utility.yul\":2544:2553   */\n      dup4\n        /* \"#utility.yul\":2540:2557   */\n      add\n        /* \"#utility.yul\":2531:2537   */\n      dup5\n        /* \"#utility.yul\":2487:2558   */\n      tag_99\n      jump\t// in\n    tag_145:\n        /* \"#utility.yul\":2343:2565   */\n      swap3\n      swap2\n      pop\n      pop\n      jump\t// out\n        /* \"#utility.yul\":2571:2714   */\n    tag_100:\n        /* \"#utility.yul\":2628:2633   */\n      0x00\n        /* \"#utility.yul\":2659:2665   */\n      dup2\n        /* \"#utility.yul\":2653:2666   */\n      mload\n        /* \"#utility.yul\":2644:2666   */\n      swap1\n      pop\n        /* \"#utility.yul\":2675:2708   */\n      tag_147\n        /* \"#utility.yul\":2702:2707   */\n      dup2\n        /* \"#utility.yul\":2675:2708   */\n      tag_97\n      jump\t// in\n    tag_147:\n        /* \"#utility.yul\":2571:2714   */\n      swap3\n      swap2\n      pop\n      pop\n      jump\t// out\n        /* \"#utility.yul\":2720:3071   */\n    tag_39:\n        /* \"#utility.yul\":2790:2796   */\n      0x00\n        /* \"#utility.yul\":2839:2841   */\n      0x20\n        /* \"#utility.yul\":2827:2836   */\n      dup3\n        /* \"#utility.yul\":2818:2825   */\n      dup5\n        /* \"#utility.yul\":2814:2837   */\n      sub\n        /* \"#utility.yul\":2810:2842   */\n      slt\n        /* \"#utility.yul\":2807:2926   */\n      iszero\n      tag_149\n      jumpi\n        /* \"#utility.yul\":2845:2924   */\n      tag_150\n      tag_91\n      jump\t// in\n    tag_150:\n        /* \"#utility.yul\":2807:2926   */\n    tag_149:\n        /* \"#utility.yul\":2965:2966   */\n      0x00\n        /* \"#utility.yul\":2990:3054   */\n      tag_151\n        /* \"#utility.yul\":3046:3053   */\n      dup5\n        /* \"#utility.yul\":3037:3043   */\n      dup3\n        /* \"#utility.yul\":3026:3035   */\n      dup6\n        /* \"#utility.yul\":3022:3044   */\n      add\n        /* \"#utility.yul\":2990:3054   */\n      tag_100\n      jump\t// in\n    tag_151:\n        /* \"#utility.yul\":2980:3054   */\n      swap2\n      pop\n        /* \"#utility.yul\":2936:3064   */\n      pop\n        /* \"#utility.yul\":2720:3071   */\n      swap3\n      swap2\n      pop\n      pop\n      jump\t// out\n        /* \"#utility.yul\":3077:3257   */\n    tag_46:\n        /* \"#utility.yul\":3125:3202   */\n      0x4e487b7100000000000000000000000000000000000000000000000000000000\n        /* \"#utility.yul\":3122:3123   */\n      0x00\n        /* \"#utility.yul\":3115:3203   */\n      mstore\n        /* \"#utility.yul\":3222:3226   */\n      0x32\n        /* \"#utility.yul\":3219:3220   */\n      0x04\n        /* \"#utility.yul\":3212:3227   */\n      mstore\n        /* \"#utility.yul\":3246:3250   */\n      0x24\n        /* \"#utility.yul\":3243:3244   */\n      0x00\n        /* \"#utility.yul\":3236:3251   */\n      revert\n        /* \"#utility.yul\":3263:3443   */\n    tag_50:\n        /* \"#utility.yul\":3311:3388   */\n      0x4e487b7100000000000000000000000000000000000000000000000000000000\n        /* \"#utility.yul\":3308:3309   */\n      0x00\n        /* \"#utility.yul\":3301:3389   */\n      mstore\n        /* \"#utility.yul\":3408:3412   */\n      0x41\n        /* \"#utility.yul\":3405:3406   */\n      0x04\n        /* \"#utility.yul\":3398:3413   */\n      mstore\n        /* \"#utility.yul\":3432:3436   */\n      0x24\n        /* \"#utility.yul\":3429:3430   */\n      0x00\n        /* \"#utility.yul\":3422:3437   */\n      revert\n        /* \"#utility.yul\":3449:3618   */\n    tag_101:\n        /* \"#utility.yul\":3533:3544   */\n      0x00\n        /* \"#utility.yul\":3567:3573   */\n      dup3\n        /* \"#utility.yul\":3562:3565   */\n      dup3\n        /* \"#utility.yul\":3555:3574   */\n      mstore\n        /* \"#utility.yul\":3607:3611   */\n      0x20\n        /* \"#utility.yul\":3602:3605   */\n      dup3\n        /* \"#utility.yul\":3598:3612   */\n      add\n        /* \"#utility.yul\":3583:3612   */\n      swap1\n      pop\n        /* \"#utility.yul\":3449:3618   */\n      swap3\n      swap2\n      pop\n      pop\n      jump\t// out\n        /* \"#utility.yul\":3624:3788   */\n    tag_102:\n        /* \"#utility.yul\":3764:3780   */\n      0x6e6f7420656e6f75676820657468000000000000000000000000000000000000\n        /* \"#utility.yul\":3760:3761   */\n      0x00\n        /* \"#utility.yul\":3752:3758   */\n      dup3\n        /* \"#utility.yul\":3748:3762   */\n      add\n        /* \"#utility.yul\":3741:3781   */\n      mstore\n        /* \"#utility.yul\":3624:3788   */\n      pop\n      jump\t// out\n        /* \"#utility.yul\":3794:4160   */\n    tag_103:\n        /* \"#utility.yul\":3936:3939   */\n      0x00\n        /* \"#utility.yul\":3957:4024   */\n      tag_157\n        /* \"#utility.yul\":4021:4023   */\n      0x0e\n        /* \"#utility.yul\":4016:4019   */\n      dup4\n        /* \"#utility.yul\":3957:4024   */\n      tag_101\n      jump\t// in\n    tag_157:\n        /* \"#utility.yul\":3950:4024   */\n      swap2\n      pop\n        /* \"#utility.yul\":4033:4126   */\n      tag_158\n        /* \"#utility.yul\":4122:4125   */\n      dup3\n        /* \"#utility.yul\":4033:4126   */\n      tag_102\n      jump\t// in\n    tag_158:\n        /* \"#utility.yul\":4151:4153   */\n      0x20\n        /* \"#utility.yul\":4146:4149   */\n      dup3\n        /* \"#utility.yul\":4142:4154   */\n      add\n        /* \"#utility.yul\":4135:4154   */\n      swap1\n      pop\n        /* \"#utility.yul\":3794:4160   */\n      swap2\n      swap1\n      pop\n      jump\t// out\n        /* \"#utility.yul\":4166:4585   */\n    tag_61:\n        /* \"#utility.yul\":4332:4336   */\n      0x00\n        /* \"#utility.yul\":4370:4372   */\n      0x20\n        /* \"#utility.yul\":4359:4368   */\n      dup3\n        /* \"#utility.yul\":4355:4373   */\n      add\n        /* \"#utility.yul\":4347:4373   */\n      swap1\n      pop\n        /* \"#utility.yul\":4419:4428   */\n      dup2\n        /* \"#utility.yul\":4413:4417   */\n      dup2\n        /* \"#utility.yul\":4409:4429   */\n      sub\n        /* \"#utility.yul\":4405:4406   */\n      0x00\n        /* \"#utility.yul\":4394:4403   */\n      dup4\n        /* \"#utility.yul\":4390:4407   */\n      add\n        /* \"#utility.yul\":4383:4430   */\n      mstore\n        /* \"#utility.yul\":4447:4578   */\n      tag_160\n        /* \"#utility.yul\":4573:4577   */\n      dup2\n        /* \"#utility.yul\":4447:4578   */\n      tag_103\n      jump\t// in\n    tag_160:\n        /* \"#utility.yul\":4439:4578   */\n      swap1\n      pop\n        /* \"#utility.yul\":4166:4585   */\n      swap2\n      swap1\n      pop\n      jump\t// out\n        /* \"#utility.yul\":4591:4771   */\n    tag_104:\n        /* \"#utility.yul\":4639:4716   */\n      0x4e487b7100000000000000000000000000000000000000000000000000000000\n        /* \"#utility.yul\":4636:4637   */\n      0x00\n        /* \"#utility.yul\":4629:4717   */\n      mstore\n        /* \"#utility.yul\":4736:4740   */\n      0x11\n        /* \"#utility.yul\":4733:4734   */\n      0x04\n        /* \"#utility.yul\":4726:4741   */\n      mstore\n        /* \"#utility.yul\":4760:4764   */\n      0x24\n        /* \"#utility.yul\":4757:4758   */\n      0x00\n        /* \"#utility.yul\":4750:4765   */\n      revert\n        /* \"#utility.yul\":4777:4968   */\n    tag_64:\n        /* \"#utility.yul\":4817:4820   */\n      0x00\n        /* \"#utility.yul\":4836:4856   */\n      tag_163\n        /* \"#utility.yul\":4854:4855   */\n      dup3\n        /* \"#utility.yul\":4836:4856   */\n      tag_88\n      jump\t// in\n    tag_163:\n        /* \"#utility.yul\":4831:4856   */\n      swap2\n      pop\n        /* \"#utility.yul\":4870:4890   */\n      tag_164\n        /* \"#utility.yul\":4888:4889   */\n      dup4\n        /* \"#utility.yul\":4870:4890   */\n      tag_88\n      jump\t// in\n    tag_164:\n        /* \"#utility.yul\":4865:4890   */\n      swap3\n      pop\n        /* \"#utility.yul\":4913:4914   */\n      dup3\n        /* \"#utility.yul\":4910:4911   */\n      dup3\n        /* \"#utility.yul\":4906:4915   */\n      add\n        /* \"#utility.yul\":4899:4915   */\n      swap1\n      pop\n        /* \"#utility.yul\":4934:4937   */\n      dup1\n        /* \"#utility.yul\":4931:4932   */\n      dup3\n        /* \"#utility.yul\":4928:4938   */\n      gt\n        /* \"#utility.yul\":4925:4961   */\n      iszero\n      tag_165\n      jumpi\n        /* \"#utility.yul\":4941:4959   */\n      tag_166\n      tag_104\n      jump\t// in\n    tag_166:\n        /* \"#utility.yul\":4925:4961   */\n    tag_165:\n        /* \"#utility.yul\":4777:4968   */\n      swap3\n      swap2\n      pop\n      pop\n      jump\t// out\n        /* \"#utility.yul\":4974:5384   */\n    tag_71:\n        /* \"#utility.yul\":5014:5021   */\n      0x00\n        /* \"#utility.yul\":5037:5057   */\n      tag_168\n        /* \"#utility.yul\":5055:5056   */\n      dup3\n        /* \"#utility.yul\":5037:5057   */\n      tag_88\n      jump\t// in\n    tag_168:\n        /* \"#utility.yul\":5032:5057   */\n      swap2\n      pop\n        /* \"#utility.yul\":5071:5091   */\n      tag_169\n        /* \"#utility.yul\":5089:5090   */\n      dup4\n        /* \"#utility.yul\":5071:5091   */\n      tag_88\n      jump\t// in\n    tag_169:\n        /* \"#utility.yul\":5066:5091   */\n      swap3\n      pop\n        /* \"#utility.yul\":5126:5127   */\n      dup3\n        /* \"#utility.yul\":5123:5124   */\n      dup3\n        /* \"#utility.yul\":5119:5128   */\n      mul\n        /* \"#utility.yul\":5148:5178   */\n      tag_170\n        /* \"#utility.yul\":5166:5177   */\n      dup2\n        /* \"#utility.yul\":5148:5178   */\n      tag_88\n      jump\t// in\n    tag_170:\n        /* \"#utility.yul\":5137:5178   */\n      swap2\n      pop\n        /* \"#utility.yul\":5327:5328   */\n      dup3\n        /* \"#utility.yul\":5318:5325   */\n      dup3\n        /* \"#utility.yul\":5314:5329   */\n      div\n        /* \"#utility.yul\":5311:5312   */\n      dup5\n        /* \"#utility.yul\":5308:5330   */\n      eq\n        /* \"#utility.yul\":5288:5289   */\n      dup4\n        /* \"#utility.yul\":5281:5290   */\n      iszero\n        /* \"#utility.yul\":5261:5344   */\n      or\n        /* \"#utility.yul\":5238:5377   */\n      tag_171\n      jumpi\n        /* \"#utility.yul\":5357:5375   */\n      tag_172\n      tag_104\n      jump\t// in\n    tag_172:\n        /* \"#utility.yul\":5238:5377   */\n    tag_171:\n        /* \"#utility.yul\":5022:5384   */\n      pop\n        /* \"#utility.yul\":4974:5384   */\n      swap3\n      swap2\n      pop\n      pop\n      jump\t// out\n        /* \"#utility.yul\":5390:5570   */\n    tag_105:\n        /* \"#utility.yul\":5438:5515   */\n      0x4e487b7100000000000000000000000000000000000000000000000000000000\n        /* \"#utility.yul\":5435:5436   */\n      0x00\n        /* \"#utility.yul\":5428:5516   */\n      mstore\n        /* \"#utility.yul\":5535:5539   */\n      0x12\n        /* \"#utility.yul\":5532:5533   */\n      0x04\n        /* \"#utility.yul\":5525:5540   */\n      mstore\n        /* \"#utility.yul\":5559:5563   */\n      0x24\n        /* \"#utility.yul\":5556:5557   */\n      0x00\n        /* \"#utility.yul\":5549:5564   */\n      revert\n        /* \"#utility.yul\":5576:5761   */\n    tag_73:\n        /* \"#utility.yul\":5616:5617   */\n      0x00\n        /* \"#utility.yul\":5633:5653   */\n      tag_175\n        /* \"#utility.yul\":5651:5652   */\n      dup3\n        /* \"#utility.yul\":5633:5653   */\n      tag_88\n      jump\t// in\n    tag_175:\n        /* \"#utility.yul\":5628:5653   */\n      swap2\n      pop\n        /* \"#utility.yul\":5667:5687   */\n      tag_176\n        /* \"#utility.yul\":5685:5686   */\n      dup4\n        /* \"#utility.yul\":5667:5687   */\n      tag_88\n      jump\t// in\n    tag_176:\n        /* \"#utility.yul\":5662:5687   */\n      swap3\n      pop\n        /* \"#utility.yul\":5706:5707   */\n      dup3\n        /* \"#utility.yul\":5696:5731   */\n      tag_177\n      jumpi\n        /* \"#utility.yul\":5711:5729   */\n      tag_178\n      tag_105\n      jump\t// in\n    tag_178:\n        /* \"#utility.yul\":5696:5731   */\n    tag_177:\n        /* \"#utility.yul\":5753:5754   */\n      dup3\n        /* \"#utility.yul\":5750:5751   */\n      dup3\n        /* \"#utility.yul\":5746:5755   */\n      div\n        /* \"#utility.yul\":5741:5755   */\n      swap1\n      pop\n        /* \"#utility.yul\":5576:5761   */\n      swap3\n      swap2\n      pop\n      pop\n      jump\t// out\n        /* \"#utility.yul\":5767:5872   */\n    tag_106:\n        /* \"#utility.yul\":5803:5810   */\n      0x00\n        /* \"#utility.yul\":5843:5865   */\n      0xffffffffffffffffffff\n        /* \"#utility.yul\":5836:5841   */\n      dup3\n        /* \"#utility.yul\":5832:5866   */\n      and\n        /* \"#utility.yul\":5821:5866   */\n      swap1\n      pop\n        /* \"#utility.yul\":5767:5872   */\n      swap2\n      swap1\n      pop\n      jump\t// out\n        /* \"#utility.yul\":5878:5998   */\n    tag_107:\n        /* \"#utility.yul\":5950:5973   */\n      tag_181\n        /* \"#utility.yul\":5967:5972   */\n      dup2\n        /* \"#utility.yul\":5950:5973   */\n      tag_106\n      jump\t// in\n    tag_181:\n        /* \"#utility.yul\":5943:5948   */\n      dup2\n        /* \"#utility.yul\":5940:5974   */\n      eq\n        /* \"#utility.yul\":5930:5992   */\n      tag_182\n      jumpi\n        /* \"#utility.yul\":5988:5989   */\n      0x00\n        /* \"#utility.yul\":5985:5986   */\n      dup1\n        /* \"#utility.yul\":5978:5990   */\n      revert\n        /* \"#utility.yul\":5930:5992   */\n    tag_182:\n        /* \"#utility.yul\":5878:5998   */\n      pop\n      jump\t// out\n        /* \"#utility.yul\":6004:6145   */\n    tag_108:\n        /* \"#utility.yul\":6060:6065   */\n      0x00\n        /* \"#utility.yul\":6091:6097   */\n      dup2\n        /* \"#utility.yul\":6085:6098   */\n      mload\n        /* \"#utility.yul\":6076:6098   */\n      swap1\n      pop\n        /* \"#utility.yul\":6107:6139   */\n      tag_184\n        /* \"#utility.yul\":6133:6138   */\n      dup2\n        /* \"#utility.yul\":6107:6139   */\n      tag_107\n      jump\t// in\n    tag_184:\n        /* \"#utility.yul\":6004:6145   */\n      swap3\n      swap2\n      pop\n      pop\n      jump\t// out\n        /* \"#utility.yul\":6151:6227   */\n    tag_109:\n        /* \"#utility.yul\":6187:6194   */\n      0x00\n        /* \"#utility.yul\":6216:6221   */\n      dup2\n        /* \"#utility.yul\":6205:6221   */\n      swap1\n      pop\n        /* \"#utility.yul\":6151:6227   */\n      swap2\n      swap1\n      pop\n      jump\t// out\n        /* \"#utility.yul\":6233:6353   */\n    tag_110:\n        /* \"#utility.yul\":6305:6328   */\n      tag_187\n        /* \"#utility.yul\":6322:6327   */\n      dup2\n        /* \"#utility.yul\":6305:6328   */\n      tag_109\n      jump\t// in\n    tag_187:\n        /* \"#utility.yul\":6298:6303   */\n      dup2\n        /* \"#utility.yul\":6295:6329   */\n      eq\n        /* \"#utility.yul\":6285:6347   */\n      tag_188\n      jumpi\n        /* \"#utility.yul\":6343:6344   */\n      0x00\n        /* \"#utility.yul\":6340:6341   */\n      dup1\n        /* \"#utility.yul\":6333:6345   */\n      revert\n        /* \"#utility.yul\":6285:6347   */\n    tag_188:\n        /* \"#utility.yul\":6233:6353   */\n      pop\n      jump\t// out\n        /* \"#utility.yul\":6359:6500   */\n    tag_111:\n        /* \"#utility.yul\":6415:6420   */\n      0x00\n        /* \"#utility.yul\":6446:6452   */\n      dup2\n        /* \"#utility.yul\":6440:6453   */\n      mload\n        /* \"#utility.yul\":6431:6453   */\n      swap1\n      pop\n        /* \"#utility.yul\":6462:6494   */\n      tag_190\n        /* \"#utility.yul\":6488:6493   */\n      dup2\n        /* \"#utility.yul\":6462:6494   */\n      tag_110\n      jump\t// in\n    tag_190:\n        /* \"#utility.yul\":6359:6500   */\n      swap3\n      swap2\n      pop\n      pop\n      jump\t// out\n        /* \"#utility.yul\":6506:7477   */\n    tag_78:\n        /* \"#utility.yul\":6609:6615   */\n      0x00\n        /* \"#utility.yul\":6617:6623   */\n      dup1\n        /* \"#utility.yul\":6625:6631   */\n      0x00\n        /* \"#utility.yul\":6633:6639   */\n      dup1\n        /* \"#utility.yul\":6641:6647   */\n      0x00\n        /* \"#utility.yul\":6690:6693   */\n      0xa0\n        /* \"#utility.yul\":6678:6687   */\n      dup7\n        /* \"#utility.yul\":6669:6676   */\n      dup9\n        /* \"#utility.yul\":6665:6688   */\n      sub\n        /* \"#utility.yul\":6661:6694   */\n      slt\n        /* \"#utility.yul\":6658:6778   */\n      iszero\n      tag_192\n      jumpi\n        /* \"#utility.yul\":6697:6776   */\n      tag_193\n      tag_91\n      jump\t// in\n    tag_193:\n        /* \"#utility.yul\":6658:6778   */\n    tag_192:\n        /* \"#utility.yul\":6817:6818   */\n      0x00\n        /* \"#utility.yul\":6842:6905   */\n      tag_194\n        /* \"#utility.yul\":6897:6904   */\n      dup9\n        /* \"#utility.yul\":6888:6894   */\n      dup3\n        /* \"#utility.yul\":6877:6886   */\n      dup10\n        /* \"#utility.yul\":6873:6895   */\n      add\n        /* \"#utility.yul\":6842:6905   */\n      tag_108\n      jump\t// in\n    tag_194:\n        /* \"#utility.yul\":6832:6905   */\n      swap6\n      pop\n        /* \"#utility.yul\":6788:6915   */\n      pop\n        /* \"#utility.yul\":6954:6956   */\n      0x20\n        /* \"#utility.yul\":6980:7043   */\n      tag_195\n        /* \"#utility.yul\":7035:7042   */\n      dup9\n        /* \"#utility.yul\":7026:7032   */\n      dup3\n        /* \"#utility.yul\":7015:7024   */\n      dup10\n        /* \"#utility.yul\":7011:7033   */\n      add\n        /* \"#utility.yul\":6980:7043   */\n      tag_111\n      jump\t// in\n    tag_195:\n        /* \"#utility.yul\":6970:7043   */\n      swap5\n      pop\n        /* \"#utility.yul\":6925:7053   */\n      pop\n        /* \"#utility.yul\":7092:7094   */\n      0x40\n        /* \"#utility.yul\":7118:7182   */\n      tag_196\n        /* \"#utility.yul\":7174:7181   */\n      dup9\n        /* \"#utility.yul\":7165:7171   */\n      dup3\n        /* \"#utility.yul\":7154:7163   */\n      dup10\n        /* \"#utility.yul\":7150:7172   */\n      add\n        /* \"#utility.yul\":7118:7182   */\n      tag_100\n      jump\t// in\n    tag_196:\n        /* \"#utility.yul\":7108:7182   */\n      swap4\n      pop\n        /* \"#utility.yul\":7063:7192   */\n      pop\n        /* \"#utility.yul\":7231:7233   */\n      0x60\n        /* \"#utility.yul\":7257:7321   */\n      tag_197\n        /* \"#utility.yul\":7313:7320   */\n      dup9\n        /* \"#utility.yul\":7304:7310   */\n      dup3\n        /* \"#utility.yul\":7293:7302   */\n      dup10\n        /* \"#utility.yul\":7289:7311   */\n      add\n        /* \"#utility.yul\":7257:7321   */\n      tag_100\n      jump\t// in\n    tag_197:\n        /* \"#utility.yul\":7247:7321   */\n      swap3\n      pop\n        /* \"#utility.yul\":7202:7331   */\n      pop\n        /* \"#utility.yul\":7370:7373   */\n      0x80\n        /* \"#utility.yul\":7397:7460   */\n      tag_198\n        /* \"#utility.yul\":7452:7459   */\n      dup9\n        /* \"#utility.yul\":7443:7449   */\n      dup3\n        /* \"#utility.yul\":7432:7441   */\n      dup10\n        /* \"#utility.yul\":7428:7450   */\n      add\n        /* \"#utility.yul\":7397:7460   */\n      tag_108\n      jump\t// in\n    tag_198:\n        /* \"#utility.yul\":7387:7460   */\n      swap2\n      pop\n        /* \"#utility.yul\":7341:7470   */\n      pop\n        /* \"#utility.yul\":6506:7477   */\n      swap3\n      swap6\n      pop\n      swap3\n      swap6\n      swap1\n      swap4\n      pop\n      jump\t// out\n        /* \"#utility.yul\":7483:8039   */\n    tag_80:\n        /* \"#utility.yul\":7522:7529   */\n      0x00\n        /* \"#utility.yul\":7545:7564   */\n      tag_200\n        /* \"#utility.yul\":7562:7563   */\n      dup3\n        /* \"#utility.yul\":7545:7564   */\n      tag_109\n      jump\t// in\n    tag_200:\n        /* \"#utility.yul\":7540:7564   */\n      swap2\n      pop\n        /* \"#utility.yul\":7578:7597   */\n      tag_201\n        /* \"#utility.yul\":7595:7596   */\n      dup4\n        /* \"#utility.yul\":7578:7597   */\n      tag_109\n      jump\t// in\n    tag_201:\n        /* \"#utility.yul\":7573:7597   */\n      swap3\n      pop\n        /* \"#utility.yul\":7632:7633   */\n      dup3\n        /* \"#utility.yul\":7629:7630   */\n      dup3\n        /* \"#utility.yul\":7625:7634   */\n      mul\n        /* \"#utility.yul\":7654:7683   */\n      tag_202\n        /* \"#utility.yul\":7671:7682   */\n      dup2\n        /* \"#utility.yul\":7654:7683   */\n      tag_109\n      jump\t// in\n    tag_202:\n        /* \"#utility.yul\":7643:7683   */\n      swap2\n      pop\n        /* \"#utility.yul\":7741:7807   */\n      0x8000000000000000000000000000000000000000000000000000000000000000\n        /* \"#utility.yul\":7738:7739   */\n      dup5\n        /* \"#utility.yul\":7735:7808   */\n      eq\n        /* \"#utility.yul\":7731:7732   */\n      0x00\n        /* \"#utility.yul\":7728:7729   */\n      dup5\n        /* \"#utility.yul\":7724:7733   */\n      slt\n        /* \"#utility.yul\":7720:7809   */\n      and\n        /* \"#utility.yul\":7717:7832   */\n      iszero\n      tag_203\n      jumpi\n        /* \"#utility.yul\":7812:7830   */\n      tag_204\n      tag_104\n      jump\t// in\n    tag_204:\n        /* \"#utility.yul\":7717:7832   */\n    tag_203:\n        /* \"#utility.yul\":7982:7983   */\n      dup3\n        /* \"#utility.yul\":7973:7980   */\n      dup3\n        /* \"#utility.yul\":7968:7984   */\n      sdiv\n        /* \"#utility.yul\":7965:7966   */\n      dup5\n        /* \"#utility.yul\":7962:7985   */\n      eq\n        /* \"#utility.yul\":7942:7943   */\n      dup4\n        /* \"#utility.yul\":7935:7944   */\n      iszero\n        /* \"#utility.yul\":7915:7999   */\n      or\n        /* \"#utility.yul\":7892:8032   */\n      tag_205\n      jumpi\n        /* \"#utility.yul\":8012:8030   */\n      tag_206\n      tag_104\n      jump\t// in\n    tag_206:\n        /* \"#utility.yul\":7892:8032   */\n    tag_205:\n        /* \"#utility.yul\":7530:8039   */\n      pop\n        /* \"#utility.yul\":7483:8039   */\n      swap3\n      swap2\n      pop\n      pop\n      jump\t// out\n\n    auxdata: 0xa264697066735822122047eca53ccd75922a4cbc4e756a4a426db9109549c9a3fb6e0d1e92ce08759c6464736f6c634300081a0033\n}\n",
				"bytecode": {
					"linkReferences": {},
					"object": "6080604052674563918244f400005f553480156019575f80fd5b50610ac1806100275f395ff3fe608060405260043610610054575f3560e01c8063098de820146100585780630d8e6e2c146100825780633ccfd60b146100ac5780634d45893e146100c25780636ce1417e146100fe578063dc0d3dff14610108575b5f80fd5b348015610063575f80fd5b5061006c610144565b60405161007991906105fe565b60405180910390f35b34801561008d575f80fd5b50610096610149565b6040516100a391906105fe565b60405180910390f35b3480156100b7575f80fd5b506100c06101d5565b005b3480156100cd575f80fd5b506100e860048036038101906100e39190610675565b610319565b6040516100f591906105fe565b60405180910390f35b61010661032e565b005b348015610113575f80fd5b5061012e600480360381019061012991906106ca565b61042f565b60405161013b9190610704565b60405180910390f35b5f5481565b5f8073694aa1769357215de4fac081bf1f309adc32530690508073ffffffffffffffffffffffffffffffffffffffff166354fd4d506040518163ffffffff1660e01b8152600401602060405180830381865afa1580156101ab573d5f803e3d5ffd5b505050506040513d601f19601f820116820180604052508101906101cf9190610731565b91505090565b5f5b600180549050811015610273575f600182815481106101f9576101f861075c565b5b905f5260205f20015f9054906101000a900473ffffffffffffffffffffffffffffffffffffffff1690505f60025f8373ffffffffffffffffffffffffffffffffffffffff1673ffffffffffffffffffffffffffffffffffffffff1681526020019081526020015f20819055505080806001019150506101d7565b505f67ffffffffffffffff81111561028e5761028d610789565b5b6040519080825280602002602001820160405280156102bc5781602001602082028036833780820191505090505b50600190805190602001906102d2929190610544565b503373ffffffffffffffffffffffffffffffffffffffff166108fc4790811502906040515f60405180830381858888f19350505050158015610316573d5f803e3d5ffd5b50565b6002602052805f5260405f205f915090505481565b5f546103393461046a565b101561037a576040517f08c379a000000000000000000000000000000000000000000000000000000000815260040161037190610810565b60405180910390fd5b600133908060018154018082558091505060019003905f5260205f20015f9091909190916101000a81548173ffffffffffffffffffffffffffffffffffffffff021916908373ffffffffffffffffffffffffffffffffffffffff1602179055503460025f3373ffffffffffffffffffffffffffffffffffffffff1673ffffffffffffffffffffffffffffffffffffffff1681526020019081526020015f205f828254610426919061085b565b92505081905550565b6001818154811061043e575f80fd5b905f5260205f20015f915054906101000a900473ffffffffffffffffffffffffffffffffffffffff1681565b5f8061047461049f565b90505f6402540be4008285610489919061088e565b61049391906108fc565b90508092505050919050565b5f8073694aa1769357215de4fac081bf1f309adc32530690505f8173ffffffffffffffffffffffffffffffffffffffff1663feaf968c6040518163ffffffff1660e01b815260040160a060405180830381865afa158015610502573d5f803e3d5ffd5b505050506040513d601f19601f82011682018060405250810190610526919061099e565b5050509150506402540be4008161053d9190610a15565b9250505090565b828054828255905f5260205f209081019282156105ba579160200282015b828111156105b9578251825f6101000a81548173ffffffffffffffffffffffffffffffffffffffff021916908373ffffffffffffffffffffffffffffffffffffffff16021790555091602001919060010190610562565b5b5090506105c791906105cb565b5090565b5b808211156105e2575f815f9055506001016105cc565b5090565b5f819050919050565b6105f8816105e6565b82525050565b5f6020820190506106115f8301846105ef565b92915050565b5f80fd5b5f73ffffffffffffffffffffffffffffffffffffffff82169050919050565b5f6106448261061b565b9050919050565b6106548161063a565b811461065e575f80fd5b50565b5f8135905061066f8161064b565b92915050565b5f6020828403121561068a57610689610617565b5b5f61069784828501610661565b91505092915050565b6106a9816105e6565b81146106b3575f80fd5b50565b5f813590506106c4816106a0565b92915050565b5f602082840312156106df576106de610617565b5b5f6106ec848285016106b6565b91505092915050565b6106fe8161063a565b82525050565b5f6020820190506107175f8301846106f5565b92915050565b5f8151905061072b816106a0565b92915050565b5f6020828403121561074657610745610617565b5b5f6107538482850161071d565b91505092915050565b7f4e487b71000000000000000000000000000000000000000000000000000000005f52603260045260245ffd5b7f4e487b71000000000000000000000000000000000000000000000000000000005f52604160045260245ffd5b5f82825260208201905092915050565b7f6e6f7420656e6f756768206574680000000000000000000000000000000000005f82015250565b5f6107fa600e836107b6565b9150610805826107c6565b602082019050919050565b5f6020820190508181035f830152610827816107ee565b9050919050565b7f4e487b71000000000000000000000000000000000000000000000000000000005f52601160045260245ffd5b5f610865826105e6565b9150610870836105e6565b92508282019050808211156108885761088761082e565b5b92915050565b5f610898826105e6565b91506108a3836105e6565b92508282026108b1816105e6565b915082820484148315176108c8576108c761082e565b5b5092915050565b7f4e487b71000000000000000000000000000000000000000000000000000000005f52601260045260245ffd5b5f610906826105e6565b9150610911836105e6565b925082610921576109206108cf565b5b828204905092915050565b5f69ffffffffffffffffffff82169050919050565b61094a8161092c565b8114610954575f80fd5b50565b5f8151905061096581610941565b92915050565b5f819050919050565b61097d8161096b565b8114610987575f80fd5b50565b5f8151905061099881610974565b92915050565b5f805f805f60a086880312156109b7576109b6610617565b5b5f6109c488828901610957565b95505060206109d58882890161098a565b94505060406109e68882890161071d565b93505060606109f78882890161071d565b9250506080610a0888828901610957565b9150509295509295909350565b5f610a1f8261096b565b9150610a2a8361096b565b9250828202610a388161096b565b91507f800000000000000000000000000000000000000000000000000000000000000084145f84121615610a6f57610a6e61082e565b5b8282058414831517610a8457610a8361082e565b5b509291505056fea264697066735822122047eca53ccd75922a4cbc4e756a4a426db9109549c9a3fb6e0d1e92ce08759c6464736f6c634300081a0033",
					"opcodes": "PUSH1 0x80 PUSH1 0x40 MSTORE PUSH8 0x4563918244F40000 PUSH0 SSTORE CALLVALUE DUP1 ISZERO PUSH1 0x19 JUMPI PUSH0 DUP1 REVERT JUMPDEST POP PUSH2 0xAC1 DUP1 PUSH2 0x27 PUSH0 CODECOPY PUSH0 RETURN INVALID PUSH1 0x80 PUSH1 0x40 MSTORE PUSH1 0x4 CALLDATASIZE LT PUSH2 0x54 JUMPI PUSH0 CALLDATALOAD PUSH1 0xE0 SHR DUP1 PUSH4 0x98DE820 EQ PUSH2 0x58 JUMPI DUP1 PUSH4 0xD8E6E2C EQ PUSH2 0x82 JUMPI DUP1 PUSH4 0x3CCFD60B EQ PUSH2 0xAC JUMPI DUP1 PUSH4 0x4D45893E EQ PUSH2 0xC2 JUMPI DUP1 PUSH4 0x6CE1417E EQ PUSH2 0xFE JUMPI DUP1 PUSH4 0xDC0D3DFF EQ PUSH2 0x108 JUMPI JUMPDEST PUSH0 DUP1 REVERT JUMPDEST CALLVALUE DUP1 ISZERO PUSH2 0x63 JUMPI PUSH0 DUP1 REVERT JUMPDEST POP PUSH2 0x6C PUSH2 0x144 JUMP JUMPDEST PUSH1 0x40 MLOAD PUSH2 0x79 SWAP2 SWAP1 PUSH2 0x5FE JUMP JUMPDEST PUSH1 0x40 MLOAD DUP1 SWAP2 SUB SWAP1 RETURN JUMPDEST CALLVALUE DUP1 ISZERO PUSH2 0x8D JUMPI PUSH0 DUP1 REVERT JUMPDEST POP PUSH2 0x96 PUSH2 0x149 JUMP JUMPDEST PUSH1 0x40 MLOAD PUSH2 0xA3 SWAP2 SWAP1 PUSH2 0x5FE JUMP JUMPDEST PUSH1 0x40 MLOAD DUP1 SWAP2 SUB SWAP1 RETURN JUMPDEST CALLVALUE DUP1 ISZERO PUSH2 0xB7 JUMPI PUSH0 DUP1 REVERT JUMPDEST POP PUSH2 0xC0 PUSH2 0x1D5 JUMP JUMPDEST STOP JUMPDEST CALLVALUE DUP1 ISZERO PUSH2 0xCD JUMPI PUSH0 DUP1 REVERT JUMPDEST POP PUSH2 0xE8 PUSH1 0x4 DUP1 CALLDATASIZE SUB DUP2 ADD SWAP1 PUSH2 0xE3 SWAP2 SWAP1 PUSH2 0x675 JUMP JUMPDEST PUSH2 0x319 JUMP JUMPDEST PUSH1 0x40 MLOAD PUSH2 0xF5 SWAP2 SWAP1 PUSH2 0x5FE JUMP JUMPDEST PUSH1 0x40 MLOAD DUP1 SWAP2 SUB SWAP1 RETURN JUMPDEST PUSH2 0x106 PUSH2 0x32E JUMP JUMPDEST STOP JUMPDEST CALLVALUE DUP1 ISZERO PUSH2 0x113 JUMPI PUSH0 DUP1 REVERT JUMPDEST POP PUSH2 0x12E PUSH1 0x4 DUP1 CALLDATASIZE SUB DUP2 ADD SWAP1 PUSH2 0x129 SWAP2 SWAP1 PUSH2 0x6CA JUMP JUMPDEST PUSH2 0x42F JUMP JUMPDEST PUSH1 0x40 MLOAD PUSH2 0x13B SWAP2 SWAP1 PUSH2 0x704 JUMP JUMPDEST PUSH1 0x40 MLOAD DUP1 SWAP2 SUB SWAP1 RETURN JUMPDEST PUSH0 SLOAD DUP2 JUMP JUMPDEST PUSH0 DUP1 PUSH20 0x694AA1769357215DE4FAC081BF1F309ADC325306 SWAP1 POP DUP1 PUSH20 0xFFFFFFFFFFFFFFFFFFFFFFFFFFFFFFFFFFFFFFFF AND PUSH4 0x54FD4D50 PUSH1 0x40 MLOAD DUP2 PUSH4 0xFFFFFFFF AND PUSH1 0xE0 SHL DUP2 MSTORE PUSH1 0x4 ADD PUSH1 0x20 PUSH1 0x40 MLOAD DUP1 DUP4 SUB DUP2 DUP7 GAS STATICCALL ISZERO DUP1 ISZERO PUSH2 0x1AB JUMPI RETURNDATASIZE PUSH0 DUP1 RETURNDATACOPY RETURNDATASIZE PUSH0 REVERT JUMPDEST POP POP POP POP PUSH1 0x40 MLOAD RETURNDATASIZE PUSH1 0x1F NOT PUSH1 0x1F DUP3 ADD AND DUP3 ADD DUP1 PUSH1 0x40 MSTORE POP DUP2 ADD SWAP1 PUSH2 0x1CF SWAP2 SWAP1 PUSH2 0x731 JUMP JUMPDEST SWAP2 POP POP SWAP1 JUMP JUMPDEST PUSH0 JUMPDEST PUSH1 0x1 DUP1 SLOAD SWAP1 POP DUP2 LT ISZERO PUSH2 0x273 JUMPI PUSH0 PUSH1 0x1 DUP3 DUP2 SLOAD DUP2 LT PUSH2 0x1F9 JUMPI PUSH2 0x1F8 PUSH2 0x75C JUMP JUMPDEST JUMPDEST SWAP1 PUSH0 MSTORE PUSH1 0x20 PUSH0 KECCAK256 ADD PUSH0 SWAP1 SLOAD SWAP1 PUSH2 0x100 EXP SWAP1 DIV PUSH20 0xFFFFFFFFFFFFFFFFFFFFFFFFFFFFFFFFFFFFFFFF AND SWAP1 POP PUSH0 PUSH1 0x2 PUSH0 DUP4 PUSH20 0xFFFFFFFFFFFFFFFFFFFFFFFFFFFFFFFFFFFFFFFF AND PUSH20 0xFFFFFFFFFFFFFFFFFFFFFFFFFFFFFFFFFFFFFFFF AND DUP2 MSTORE PUSH1 0x20 ADD SWAP1 DUP2 MSTORE PUSH1 0x20 ADD PUSH0 KECCAK256 DUP2 SWAP1 SSTORE POP POP DUP1 DUP1 PUSH1 0x1 ADD SWAP2 POP POP PUSH2 0x1D7 JUMP JUMPDEST POP PUSH0 PUSH8 0xFFFFFFFFFFFFFFFF DUP2 GT ISZERO PUSH2 0x28E JUMPI PUSH2 0x28D PUSH2 0x789 JUMP JUMPDEST JUMPDEST PUSH1 0x40 MLOAD SWAP1 DUP1 DUP3 MSTORE DUP1 PUSH1 0x20 MUL PUSH1 0x20 ADD DUP3 ADD PUSH1 0x40 MSTORE DUP1 ISZERO PUSH2 0x2BC JUMPI DUP2 PUSH1 0x20 ADD PUSH1 0x20 DUP3 MUL DUP1 CALLDATASIZE DUP4 CALLDATACOPY DUP1 DUP3 ADD SWAP2 POP POP SWAP1 POP JUMPDEST POP PUSH1 0x1 SWAP1 DUP1 MLOAD SWAP1 PUSH1 0x20 ADD SWAP1 PUSH2 0x2D2 SWAP3 SWAP2 SWAP1 PUSH2 0x544 JUMP JUMPDEST POP CALLER PUSH20 0xFFFFFFFFFFFFFFFFFFFFFFFFFFFFFFFFFFFFFFFF AND PUSH2 0x8FC SELFBALANCE SWAP1 DUP2 ISZERO MUL SWAP1 PUSH1 0x40 MLOAD PUSH0 PUSH1 0x40 MLOAD DUP1 DUP4 SUB DUP2 DUP6 DUP9 DUP9 CALL SWAP4 POP POP POP POP ISZERO DUP1 ISZERO PUSH2 0x316 JUMPI RETURNDATASIZE PUSH0 DUP1 RETURNDATACOPY RETURNDATASIZE PUSH0 REVERT JUMPDEST POP JUMP JUMPDEST PUSH1 0x2 PUSH1 0x20 MSTORE DUP1 PUSH0 MSTORE PUSH1 0x40 PUSH0 KECCAK256 PUSH0 SWAP2 POP SWAP1 POP SLOAD DUP2 JUMP JUMPDEST PUSH0 SLOAD PUSH2 0x339 CALLVALUE PUSH2 0x46A JUMP JUMPDEST LT ISZERO PUSH2 0x37A JUMPI PUSH1 0x40 MLOAD PUSH32 0x8C379A000000000000000000000000000000000000000000000000000000000 DUP2 MSTORE PUSH1 0x4 ADD PUSH2 0x371 SWAP1 PUSH2 0x810 JUMP JUMPDEST PUSH1 0x40 MLOAD DUP1 SWAP2 SUB SWAP1 REVERT JUMPDEST PUSH1 0x1 CALLER SWAP1 DUP1 PUSH1 0x1 DUP2 SLOAD ADD DUP1 DUP3 SSTORE DUP1 SWAP2 POP POP PUSH1 0x1 SWAP1 SUB SWAP1 PUSH0 MSTORE PUSH1 0x20 PUSH0 KECCAK256 ADD PUSH0 SWAP1 SWAP2 SWAP1 SWAP2 SWAP1 SWAP2 PUSH2 0x100 EXP DUP2 SLOAD DUP2 PUSH20 0xFFFFFFFFFFFFFFFFFFFFFFFFFFFFFFFFFFFFFFFF MUL NOT AND SWAP1 DUP4 PUSH20 0xFFFFFFFFFFFFFFFFFFFFFFFFFFFFFFFFFFFFFFFF AND MUL OR SWAP1 SSTORE POP CALLVALUE PUSH1 0x2 PUSH0 CALLER PUSH20 0xFFFFFFFFFFFFFFFFFFFFFFFFFFFFFFFFFFFFFFFF AND PUSH20 0xFFFFFFFFFFFFFFFFFFFFFFFFFFFFFFFFFFFFFFFF AND DUP2 MSTORE PUSH1 0x20 ADD SWAP1 DUP2 MSTORE PUSH1 0x20 ADD PUSH0 KECCAK256 PUSH0 DUP3 DUP3 SLOAD PUSH2 0x426 SWAP2 SWAP1 PUSH2 0x85B JUMP JUMPDEST SWAP3 POP POP DUP2 SWAP1 SSTORE POP JUMP JUMPDEST PUSH1 0x1 DUP2 DUP2 SLOAD DUP2 LT PUSH2 0x43E JUMPI PUSH0 DUP1 REVERT JUMPDEST SWAP1 PUSH0 MSTORE PUSH1 0x20 PUSH0 KECCAK256 ADD PUSH0 SWAP2 POP SLOAD SWAP1 PUSH2 0x100 EXP SWAP1 DIV PUSH20 0xFFFFFFFFFFFFFFFFFFFFFFFFFFFFFFFFFFFFFFFF AND DUP2 JUMP JUMPDEST PUSH0 DUP1 PUSH2 0x474 PUSH2 0x49F JUMP JUMPDEST SWAP1 POP PUSH0 PUSH5 0x2540BE400 DUP3 DUP6 PUSH2 0x489 SWAP2 SWAP1 PUSH2 0x88E JUMP JUMPDEST PUSH2 0x493 SWAP2 SWAP1 PUSH2 0x8FC JUMP JUMPDEST SWAP1 POP DUP1 SWAP3 POP POP POP SWAP2 SWAP1 POP JUMP JUMPDEST PUSH0 DUP1 PUSH20 0x694AA1769357215DE4FAC081BF1F309ADC325306 SWAP1 POP PUSH0 DUP2 PUSH20 0xFFFFFFFFFFFFFFFFFFFFFFFFFFFFFFFFFFFFFFFF AND PUSH4 0xFEAF968C PUSH1 0x40 MLOAD DUP2 PUSH4 0xFFFFFFFF AND PUSH1 0xE0 SHL DUP2 MSTORE PUSH1 0x4 ADD PUSH1 0xA0 PUSH1 0x40 MLOAD DUP1 DUP4 SUB DUP2 DUP7 GAS STATICCALL ISZERO DUP1 ISZERO PUSH2 0x502 JUMPI RETURNDATASIZE PUSH0 DUP1 RETURNDATACOPY RETURNDATASIZE PUSH0 REVERT JUMPDEST POP POP POP POP PUSH1 0x40 MLOAD RETURNDATASIZE PUSH1 0x1F NOT PUSH1 0x1F DUP3 ADD AND DUP3 ADD DUP1 PUSH1 0x40 MSTORE POP DUP2 ADD SWAP1 PUSH2 0x526 SWAP2 SWAP1 PUSH2 0x99E JUMP JUMPDEST POP POP POP SWAP2 POP POP PUSH5 0x2540BE400 DUP2 PUSH2 0x53D SWAP2 SWAP1 PUSH2 0xA15 JUMP JUMPDEST SWAP3 POP POP POP SWAP1 JUMP JUMPDEST DUP3 DUP1 SLOAD DUP3 DUP3 SSTORE SWAP1 PUSH0 MSTORE PUSH1 0x20 PUSH0 KECCAK256 SWAP1 DUP2 ADD SWAP3 DUP3 ISZERO PUSH2 0x5BA JUMPI SWAP2 PUSH1 0x20 MUL DUP3 ADD JUMPDEST DUP3 DUP2 GT ISZERO PUSH2 0x5B9 JUMPI DUP3 MLOAD DUP3 PUSH0 PUSH2 0x100 EXP DUP2 SLOAD DUP2 PUSH20 0xFFFFFFFFFFFFFFFFFFFFFFFFFFFFFFFFFFFFFFFF MUL NOT AND SWAP1 DUP4 PUSH20 0xFFFFFFFFFFFFFFFFFFFFFFFFFFFFFFFFFFFFFFFF AND MUL OR SWAP1 SSTORE POP SWAP2 PUSH1 0x20 ADD SWAP2 SWAP1 PUSH1 0x1 ADD SWAP1 PUSH2 0x562 JUMP JUMPDEST JUMPDEST POP SWAP1 POP PUSH2 0x5C7 SWAP2 SWAP1 PUSH2 0x5CB JUMP JUMPDEST POP SWAP1 JUMP JUMPDEST JUMPDEST DUP1 DUP3 GT ISZERO PUSH2 0x5E2 JUMPI PUSH0 DUP2 PUSH0 SWAP1 SSTORE POP PUSH1 0x1 ADD PUSH2 0x5CC JUMP JUMPDEST POP SWAP1 JUMP JUMPDEST PUSH0 DUP2 SWAP1 POP SWAP2 SWAP1 POP JUMP JUMPDEST PUSH2 0x5F8 DUP2 PUSH2 0x5E6 JUMP JUMPDEST DUP3 MSTORE POP POP JUMP JUMPDEST PUSH0 PUSH1 0x20 DUP3 ADD SWAP1 POP PUSH2 0x611 PUSH0 DUP4 ADD DUP5 PUSH2 0x5EF JUMP JUMPDEST SWAP3 SWAP2 POP POP JUMP JUMPDEST PUSH0 DUP1 REVERT JUMPDEST PUSH0 PUSH20 0xFFFFFFFFFFFFFFFFFFFFFFFFFFFFFFFFFFFFFFFF DUP3 AND SWAP1 POP SWAP2 SWAP1 POP JUMP JUMPDEST PUSH0 PUSH2 0x644 DUP3 PUSH2 0x61B JUMP JUMPDEST SWAP1 POP SWAP2 SWAP1 POP JUMP JUMPDEST PUSH2 0x654 DUP2 PUSH2 0x63A JUMP JUMPDEST DUP2 EQ PUSH2 0x65E JUMPI PUSH0 DUP1 REVERT JUMPDEST POP JUMP JUMPDEST PUSH0 DUP2 CALLDATALOAD SWAP1 POP PUSH2 0x66F DUP2 PUSH2 0x64B JUMP JUMPDEST SWAP3 SWAP2 POP POP JUMP JUMPDEST PUSH0 PUSH1 0x20 DUP3 DUP5 SUB SLT ISZERO PUSH2 0x68A JUMPI PUSH2 0x689 PUSH2 0x617 JUMP JUMPDEST JUMPDEST PUSH0 PUSH2 0x697 DUP5 DUP3 DUP6 ADD PUSH2 0x661 JUMP JUMPDEST SWAP2 POP POP SWAP3 SWAP2 POP POP JUMP JUMPDEST PUSH2 0x6A9 DUP2 PUSH2 0x5E6 JUMP JUMPDEST DUP2 EQ PUSH2 0x6B3 JUMPI PUSH0 DUP1 REVERT JUMPDEST POP JUMP JUMPDEST PUSH0 DUP2 CALLDATALOAD SWAP1 POP PUSH2 0x6C4 DUP2 PUSH2 0x6A0 JUMP JUMPDEST SWAP3 SWAP2 POP POP JUMP JUMPDEST PUSH0 PUSH1 0x20 DUP3 DUP5 SUB SLT ISZERO PUSH2 0x6DF JUMPI PUSH2 0x6DE PUSH2 0x617 JUMP JUMPDEST JUMPDEST PUSH0 PUSH2 0x6EC DUP5 DUP3 DUP6 ADD PUSH2 0x6B6 JUMP JUMPDEST SWAP2 POP POP SWAP3 SWAP2 POP POP JUMP JUMPDEST PUSH2 0x6FE DUP2 PUSH2 0x63A JUMP JUMPDEST DUP3 MSTORE POP POP JUMP JUMPDEST PUSH0 PUSH1 0x20 DUP3 ADD SWAP1 POP PUSH2 0x717 PUSH0 DUP4 ADD DUP5 PUSH2 0x6F5 JUMP JUMPDEST SWAP3 SWAP2 POP POP JUMP JUMPDEST PUSH0 DUP2 MLOAD SWAP1 POP PUSH2 0x72B DUP2 PUSH2 0x6A0 JUMP JUMPDEST SWAP3 SWAP2 POP POP JUMP JUMPDEST PUSH0 PUSH1 0x20 DUP3 DUP5 SUB SLT ISZERO PUSH2 0x746 JUMPI PUSH2 0x745 PUSH2 0x617 JUMP JUMPDEST JUMPDEST PUSH0 PUSH2 0x753 DUP5 DUP3 DUP6 ADD PUSH2 0x71D JUMP JUMPDEST SWAP2 POP POP SWAP3 SWAP2 POP POP JUMP JUMPDEST PUSH32 0x4E487B7100000000000000000000000000000000000000000000000000000000 PUSH0 MSTORE PUSH1 0x32 PUSH1 0x4 MSTORE PUSH1 0x24 PUSH0 REVERT JUMPDEST PUSH32 0x4E487B7100000000000000000000000000000000000000000000000000000000 PUSH0 MSTORE PUSH1 0x41 PUSH1 0x4 MSTORE PUSH1 0x24 PUSH0 REVERT JUMPDEST PUSH0 DUP3 DUP3 MSTORE PUSH1 0x20 DUP3 ADD SWAP1 POP SWAP3 SWAP2 POP POP JUMP JUMPDEST PUSH32 0x6E6F7420656E6F75676820657468000000000000000000000000000000000000 PUSH0 DUP3 ADD MSTORE POP JUMP JUMPDEST PUSH0 PUSH2 0x7FA PUSH1 0xE DUP4 PUSH2 0x7B6 JUMP JUMPDEST SWAP2 POP PUSH2 0x805 DUP3 PUSH2 0x7C6 JUMP JUMPDEST PUSH1 0x20 DUP3 ADD SWAP1 POP SWAP2 SWAP1 POP JUMP JUMPDEST PUSH0 PUSH1 0x20 DUP3 ADD SWAP1 POP DUP2 DUP2 SUB PUSH0 DUP4 ADD MSTORE PUSH2 0x827 DUP2 PUSH2 0x7EE JUMP JUMPDEST SWAP1 POP SWAP2 SWAP1 POP JUMP JUMPDEST PUSH32 0x4E487B7100000000000000000000000000000000000000000000000000000000 PUSH0 MSTORE PUSH1 0x11 PUSH1 0x4 MSTORE PUSH1 0x24 PUSH0 REVERT JUMPDEST PUSH0 PUSH2 0x865 DUP3 PUSH2 0x5E6 JUMP JUMPDEST SWAP2 POP PUSH2 0x870 DUP4 PUSH2 0x5E6 JUMP JUMPDEST SWAP3 POP DUP3 DUP3 ADD SWAP1 POP DUP1 DUP3 GT ISZERO PUSH2 0x888 JUMPI PUSH2 0x887 PUSH2 0x82E JUMP JUMPDEST JUMPDEST SWAP3 SWAP2 POP POP JUMP JUMPDEST PUSH0 PUSH2 0x898 DUP3 PUSH2 0x5E6 JUMP JUMPDEST SWAP2 POP PUSH2 0x8A3 DUP4 PUSH2 0x5E6 JUMP JUMPDEST SWAP3 POP DUP3 DUP3 MUL PUSH2 0x8B1 DUP2 PUSH2 0x5E6 JUMP JUMPDEST SWAP2 POP DUP3 DUP3 DIV DUP5 EQ DUP4 ISZERO OR PUSH2 0x8C8 JUMPI PUSH2 0x8C7 PUSH2 0x82E JUMP JUMPDEST JUMPDEST POP SWAP3 SWAP2 POP POP JUMP JUMPDEST PUSH32 0x4E487B7100000000000000000000000000000000000000000000000000000000 PUSH0 MSTORE PUSH1 0x12 PUSH1 0x4 MSTORE PUSH1 0x24 PUSH0 REVERT JUMPDEST PUSH0 PUSH2 0x906 DUP3 PUSH2 0x5E6 JUMP JUMPDEST SWAP2 POP PUSH2 0x911 DUP4 PUSH2 0x5E6 JUMP JUMPDEST SWAP3 POP DUP3 PUSH2 0x921 JUMPI PUSH2 0x920 PUSH2 0x8CF JUMP JUMPDEST JUMPDEST DUP3 DUP3 DIV SWAP1 POP SWAP3 SWAP2 POP POP JUMP JUMPDEST PUSH0 PUSH10 0xFFFFFFFFFFFFFFFFFFFF DUP3 AND SWAP1 POP SWAP2 SWAP1 POP JUMP JUMPDEST PUSH2 0x94A DUP2 PUSH2 0x92C JUMP JUMPDEST DUP2 EQ PUSH2 0x954 JUMPI PUSH0 DUP1 REVERT JUMPDEST POP JUMP JUMPDEST PUSH0 DUP2 MLOAD SWAP1 POP PUSH2 0x965 DUP2 PUSH2 0x941 JUMP JUMPDEST SWAP3 SWAP2 POP POP JUMP JUMPDEST PUSH0 DUP2 SWAP1 POP SWAP2 SWAP1 POP JUMP JUMPDEST PUSH2 0x97D DUP2 PUSH2 0x96B JUMP JUMPDEST DUP2 EQ PUSH2 0x987 JUMPI PUSH0 DUP1 REVERT JUMPDEST POP JUMP JUMPDEST PUSH0 DUP2 MLOAD SWAP1 POP PUSH2 0x998 DUP2 PUSH2 0x974 JUMP JUMPDEST SWAP3 SWAP2 POP POP JUMP JUMPDEST PUSH0 DUP1 PUSH0 DUP1 PUSH0 PUSH1 0xA0 DUP7 DUP9 SUB SLT ISZERO PUSH2 0x9B7 JUMPI PUSH2 0x9B6 PUSH2 0x617 JUMP JUMPDEST JUMPDEST PUSH0 PUSH2 0x9C4 DUP9 DUP3 DUP10 ADD PUSH2 0x957 JUMP JUMPDEST SWAP6 POP POP PUSH1 0x20 PUSH2 0x9D5 DUP9 DUP3 DUP10 ADD PUSH2 0x98A JUMP JUMPDEST SWAP5 POP POP PUSH1 0x40 PUSH2 0x9E6 DUP9 DUP3 DUP10 ADD PUSH2 0x71D JUMP JUMPDEST SWAP4 POP POP PUSH1 0x60 PUSH2 0x9F7 DUP9 DUP3 DUP10 ADD PUSH2 0x71D JUMP JUMPDEST SWAP3 POP POP PUSH1 0x80 PUSH2 0xA08 DUP9 DUP3 DUP10 ADD PUSH2 0x957 JUMP JUMPDEST SWAP2 POP POP SWAP3 SWAP6 POP SWAP3 SWAP6 SWAP1 SWAP4 POP JUMP JUMPDEST PUSH0 PUSH2 0xA1F DUP3 PUSH2 0x96B JUMP JUMPDEST SWAP2 POP PUSH2 0xA2A DUP4 PUSH2 0x96B JUMP JUMPDEST SWAP3 POP DUP3 DUP3 MUL PUSH2 0xA38 DUP2 PUSH2 0x96B JUMP JUMPDEST SWAP2 POP PUSH32 0x8000000000000000000000000000000000000000000000000000000000000000 DUP5 EQ PUSH0 DUP5 SLT AND ISZERO PUSH2 0xA6F JUMPI PUSH2 0xA6E PUSH2 0x82E JUMP JUMPDEST JUMPDEST DUP3 DUP3 SDIV DUP5 EQ DUP4 ISZERO OR PUSH2 0xA84 JUMPI PUSH2 0xA83 PUSH2 0x82E JUMP JUMPDEST JUMPDEST POP SWAP3 SWAP2 POP POP JUMP INVALID LOG2 PUSH5 0x6970667358 0x22 SLT KECCAK256 SELFBALANCE 0xEC 0xA5 EXTCODECOPY 0xCD PUSH22 0x922A4CBC4E756A4A426DB9109549C9A3FB6E0D1E92CE ADDMOD PUSH22 0x9C6464736F6C634300081A0033000000000000000000 "
				},
				"gasEstimates": {
					"creation": {
						"codeDepositCost": "550600",
						"executionCost": "22690",
						"totalCost": "573290"
					},
					"external": {
						"Fund()": "infinite",
						"addresSTOAmountFunding(address)": "2846",
						"funders(uint256)": "5032",
						"getVersion()": "infinite",
						"minimumUsd()": "2402",
						"withdraw()": "infinite"
					}
				},
				"methodIdentifiers": {
					"Fund()": "6ce1417e",
					"addresSTOAmountFunding(address)": "4d45893e",
					"funders(uint256)": "dc0d3dff",
					"getVersion()": "0d8e6e2c",
					"minimumUsd()": "098de820",
					"withdraw()": "3ccfd60b"
				}
			},
			"storageLayout": {
				"storage": [
					{
						"astId": 57,
						"contract": "contracts/FundMe.sol:FundMe",
						"label": "minimumUsd",
						"offset": 0,
						"slot": "0",
						"type": "t_uint256"
					},
					{
						"astId": 60,
						"contract": "contracts/FundMe.sol:FundMe",
						"label": "funders",
						"offset": 0,
						"slot": "1",
						"type": "t_array(t_address)dyn_storage"
					},
					{
						"astId": 64,
						"contract": "contracts/FundMe.sol:FundMe",
						"label": "addresSTOAmountFunding",
						"offset": 0,
						"slot": "2",
						"type": "t_mapping(t_address,t_uint256)"
					}
				],
				"types": {
					"t_address": {
						"encoding": "inplace",
						"label": "address",
						"numberOfBytes": "20"
					},
					"t_array(t_address)dyn_storage": {
						"base": "t_address",
						"encoding": "dynamic_array",
						"label": "address[]",
						"numberOfBytes": "32"
					},
					"t_mapping(t_address,t_uint256)": {
						"encoding": "mapping",
						"key": "t_address",
						"label": "mapping(address => uint256)",
						"numberOfBytes": "32",
						"value": "t_uint256"
					},
					"t_uint256": {
						"encoding": "inplace",
						"label": "uint256",
						"numberOfBytes": "32"
					}
				}
			},
			"userdoc": {
				"kind": "user",
				"methods": {},
				"version": 1
			}
		}
	}
}